:020000041000EA
:10000000002008205D0100101B0100101D010010E0
:100010001101001011010010110100101101001058
:100020001901001019010010190100101F01001022
:10003000110100101901001021010010230100100E
:100040001101001011010010110100101101001028
:100050001101001011010010110100101101001018
:100060001101001011010010110100101101001008
:1000700011010010110100101101001011010010F8
:1000800011010010110100101101001011010010E8
:1000900011010010110100101101001011010010D8
:1000A00011010010110100101101001011010010C8
:1000B00011010010110100101101001011010010B8
:1000C00011010010110100101101001011010010A8
:1000D0001101001011010010110100101101001098
:1000E0001101001011010010110100101101001088
:1000F0001101001011010010110100101101001078
:100100001101001011010010110100101101001067
:10011000EFF30580103800BE00BE00BE00BE00BE7A
:1001200000BE00BEF2EB8871B45B0010E05B001013
:10013000A001001090A31AE7D3DEFFFF42012110B7
:10014000FF010000A8640000793512AB4FF00000F9
:100150001E49086006C881F3088810474FF05040D8
:10016000006810B14FF00000F2E70DA40ECC00299A
:1001700002D000F012F8F9E71549164A002000E015
:1001800001C19142FCD11449884714498847144958
:10019000884700BEFDE701C901C29A42FBD3704700
:1001A000E05B001010010020100B0020E065001043
:1001B0000000082000000820E06500100010082062
:1001C00000100820000000007047000008ED00E06B
:1001D000100B002028230020D93E001091020010AF
:1001E000D13E0010F8B500BF064B0749C91A891067
:1001F00048BF0131491003D0044B0BB101481847E7
:10020000704700BF100B0020100B00200000000002
:1002100008B5054B1BB105490548AFF30080BDE8A3
:100220000840FFF7E1BF00BF00000000540F0020AE
:100230005C53001010B50C46104904F0C1FE00B12B
:1002400010BD21460E4804F037F820460D4904F051
:10025000B7FE60B120460C4904F0B2FE0028EFD191
:1002600000F082FF4FF47A72084B1A6010BD0A2228
:10027000BDE81040054B1A6000F056BF60530010F7
:100280006C530010845300108C5300102009002080
:100290002DE9F0433148A3B000F0C2FD03F044FF64
:1002A00000F0C4FD00F0C6FE072000F0B3FF0720F9
:1002B0004FF0000343EC4400294F0022012100F0DD
:1002C00095FF3E6801F0C6FD4FF47A7305464FF086
:1002D000FF3C6FF00042E6FB0351AC4572EB0103BB
:1002E0003ABF654614460C4600F03EFFDFF88080BA
:1002F0001C4E00F09DFE00F0E1FE736A9C4229D87E
:10030000B26AAA4201D29C4224D0D8F8000004F07C
:10031000F3FF04460D46144ACDE90045802102A8AA
:1003200003F092FD114902A800F032FED7F80090C8
:1003300001F090FD4FF47A7305464FF0FF3C6FF0EB
:100340000042E9FB0351AC4572EB01030C463CBF94
:1003500065461446022001F08BFCCAE73502001006
:100360002009002000000B40945300109C53001003
:10037000480F00201E4A9369D80638D42DE9F04171
:10038000DFF880C01B4C1C4F1C4D1D4EDFF878E081
:100390009369D906FCD41068238839880133C3F3E4
:1003A0000A0389B28B425FFA80F804D1398801319F
:1003B000C1F30A01398021882380288833880130DD
:1003C000C0F30A009BB289B298420CF8018004D1B4
:1003D00033880133C3F30A0333802B8828809BB210
:1003E0000EF803809369DB06D2D5BDE8F081704733
:1003F0000080074020230020222300201C2300200F
:100400001E230020901A0020901200202DE9F047B2
:10041000204F214D3A882B8892B29BB29A4237D016
:10042000DFF88C801D4EDFF87C901D4C0BE0FE2B1E
:1004300003D8591C316009F803203A882B8892B2FE
:100440009BB29A4224D02A882B8892B218F80220B4
:100450000133C3F30A030D2A2B80EED00A2A336836
:10046000E5D1002BE9D04FF0000AFF220D490C48DE
:1004700009F803A004F052FB0B4B0C4A1B6884F8EC
:10048000FFA013B148461168984700233360D4E7B2
:10049000BDE8F08720230020222300206C100020DC
:1004A000400E00206C0F0020400F0020440F002061
:1004B000901A00202DE9F04FA54CC5B0A369039117
:1004C000D906019206D4A369DA06FCD42368A3698D
:1004D000DB06F8D500229F4B1A700178C1B10D25BB
:1004E0009D4BB3F902409A4B002A40F0D0808C42D9
:1004F00000F0D5809A699206FCD4196010F8012B9F
:10050000A2F10D02B2FA82F2017852090029EBD170
:1005100001F0A0FC002900F00D814FF47A72002355
:1005200004F0EEFE0290DFF850828C4CDFF84C9223
:10053000DFF840B201F08EFC0346002900F0C180D4
:1005400000234FF47A7204F0DBFE029BC01A019B79
:10055000984280F0BF8001F07DFC002900F0BE8051
:100560004FF47A72002304F0CBFE064601F072FCD1
:100570000346002900F098804FF47A72002304F0BB
:10058000BFFE801B3128D5D8B8F80020238892B24E
:100590009BB29A42EAD02288238892B219F80220AC
:1005A0000133C3F30A030D2A2380DFD00A2ADDD0EA
:1005B0000DF1100A574601258AF8002001F04AFC87
:1005C000034629B34FF47A72002304F099FE801B8E
:1005D000312823D8B8F80020238892B29BB29A42DF
:1005E000ECD02288238892B219F802200133C3F399
:1005F0000A030D2A2380E1D00A2A0FD0FF2D71D0E3
:1006000007F8012F01F026FC013503460029D9D156
:10061000ABFB03308009801B3128DBD900230AF8AB
:100620000530FF2251464B4804F078FA00234C4A2B
:100630001568484A82F8FF305DB144F64F33BAF886
:1006400000209A4252D05046464904F001FC00284E
:1006500056D05046444904F0FBFB00285BD150467D
:10066000424904F0F5FB00286AD150463D4904F0A8
:10067000EFFB0546002867D15046039904F0E8FBDC
:1006800000283FF457AF284645B0BDE8F08F9A697F
:1006900097067FF532AF9A699706F8D42DE79A69E5
:1006A0009606FCD41D6025E7ABFB0330C6EB90102B
:1006B00031287FF669AF01F0CDFB034600297FF4B6
:1006C0003FAFABFB0330029B8009C01A019B9842ED
:1006D000FFF441AF012045B0BDE8F08FABFB003621
:1006E000B60943E700238AF8FF309AE79AF8023008
:1006F000002BAED050461B4904F0AAFB0028A8D11D
:1007000050461A4904F0A4FB0028A2D150461649CD
:1007100004F09EFB18B1042045B0BDE8F08F5046B0
:10072000039904F095FB00289FD1114B504619689E
:10073000A8478EE70F4AA2FB00239B090293F2E62B
:10074000032045B0BDE8F08F022045B0BDE8F08F32
:1007500000800740400E00201423002022230020A8
:10076000400F0020AC530010BC530010B4530010D5
:10077000440F0020D34D621020230020901A002047
:10078000024A034B10601960704700BF400F002001
:10079000440F00204FF4E13303C82DE9F041374DF9
:1007A00085E80300A8792B60FF285CD11946344CFA
:1007B000344F204601F098FB2879022100F0F8FC24
:1007C0006879022100F0F4FC002301220821204670
:1007D00001F00CFC0121204601F040FC22202A49B6
:1007E00000F0D6FD0121222000F0BCFD50210023A5
:1007F000A163616B2548264A264E274D01F038013A
:10080000416313803B8033802B80A369D90606D4D3
:10081000A369DA06FCD42368A369DB06F8D54FF098
:1008200000081E4C1E4884F8008003F0C5FC184ADE
:10083000A2F80080124AA7F80080A6F80080A5F868
:1008400000809369D80606D49369D906FCD413684E
:100850009369DB06F8D50023237040F6B830BDE875
:10086000F04101F005BA00F0D5FC4FF00102AB7980
:1008700042EC443042EC4030296898E7380E0020C2
:1008800000800740202300207503001000900740DF
:10089000222300201E2300201C230020400E0020C5
:1008A000C4530010017831B310B400220D24124B50
:1008B000B3F902C0114B92B98C4517D09A699206D0
:1008C000FCD4196010F8012BA2F10D02B2FA82F2E9
:1008D000017852090029EED15DF8044B70479A69FE
:1008E0009206EED59A699206F9D4EAE79A699206D9
:1008F000FCD41C60E2E7704714230020008007400E
:1009000070B50E4D0E4C2A88238892B29BB29A4243
:1009100010D00C4E2288238892B20133C3F30A030D
:10092000B05C238003F006FC2A88238892B29BB235
:100930009A42EFD1BDE87040FFF768BD1C2300204C
:100940001E2300209012002068B161B10023F0B492
:10095000064F074E074D084C3B8033802B80238089
:10096000F0BCFFF7A7BD0720704700BF222300207F
:10097000202300201E2300201C2300202DE9F84303
:10098000044601F067FA4FF47A7307464FF0FF30E0
:100990006FF00042E4FB0371B84272EB01033ABF0F
:1009A000074616460E46DFF86C80D8F824309E4283
:1009B00007D8D8F82820BA4201D3BDE8F8839E4270
:1009C000FBD1124CDFF850902288B9F8003092B277
:1009D0009BB29A4214D00E4DB9F80020B9F80030FD
:1009E00092B20133C3F30A03A85CA9F8003003F004
:1009F000A1FB2288B9F8003092B29BB29A42EBD1A7
:100A0000FFF704FD022001F033F9CEE71C2300209C
:100A10009012002000000B401E230020F8B5034672
:100A20000C4611481946154603F046FC21460F486E
:100A300003F042FC74B100232A4620460C4F0D4EB1
:100A40000D4D0E4C0E493B8033802B802380FFF7E9
:100A500031FD20B10B4803F0AFFB0020F8BD0A4880
:100A600003F0AAFB0120F8BDE4530010FC53001072
:100A700022230020202300201E2300201C230020EE
:100A8000A853001028540010145400102DE9F84306
:100A9000044601F0DFF94FF47A7307464FF0FF3058
:100AA0006FF00042E4FB0371B84272EB01033ABFFE
:100AB000074616460E46DFF8A080D8F824309E423E
:100AC00008D8D8F82820BA4202D30020BDE8F8831D
:100AD0009E42FAD11A4CDFF884902288B9F800308F
:100AE00092B29BB29A4214D0164DB9F80020B9F8D0
:100AF000003092B20133C3F30A03A85CA9F80030B6
:100B000003F018FB2288B9F8003092B29BB29A42E7
:100B1000EBD1FFF77BFC00230B4A0C4913800C4AF6
:100B20000C4813804FF49672A9F800302380FFF729
:100B3000C1FC18B1322001F09BF8BEE70120C5E7E7
:100B40001C2300209012002022230020A853001014
:100B5000202300205454001000000B401E230020CE
:100B60002DE9F0410D222E49054603F09DFF002896
:100B700054D12C4F3B68002B50D06C7B0D3524B9E1
:100B80004CE015F8014F002C48D02C2CF9D1222133
:100B9000681C03F021FF002840D0451C2221284674
:100BA00003F01AFF0646002838D0A0EB0508B8F17C
:100BB0007F0F28BF4FF07F082946002542461A487C
:100BC00004F0DCFA184B03F8085073782C2B25D16D
:100BD00002362146304603F0FFFE0446F0B13046AF
:100BE00003F080FD661C0446304604F03DFB0346DE
:100BF00084F309049C42A8BF1C46314622460B4898
:100C000004F0BCFA094A3E68094B1555B446224621
:100C1000BDE8F0411B68044804496047BDE8F08125
:100C20005C540010300E0020942200207010002030
:100C3000340E002010B40446044A054B14600548E5
:100C40005DF8044B1960FFF79BBD00BF300E00201C
:100C5000340E0020610B0010F0B14368E3B170B5B1
:100C6000C4B000930D4BD0E90254002D08BF1D46BF
:100C7000002C08BF1C460E4603684FF48071CDE976
:100C80000154074A04A803F0DFF83246054904A8D6
:100C9000FFF75AFE44B070BD07207047245500107E
:100CA0006C540010A8530010034698B10029084660
:100CB00010DD10B51446C2B000904FF48071064AA2
:100CC00002A803F0C1F82246044902A8FFF73CFE3F
:100CD00042B010BD0720704798540010A853001070
:100CE000E0B170B50C46C2B0054601460C48164648
:100CF00003F0E2FA022CA8BF022424EAE4742B4693
:100D00004FF48071074A02A8009403F09DF8324620
:100D100002A90548FFF782FE42B070BD012070476E
:100D2000B4540010D0540010A8530010F0B130B5E6
:100D30000D46C5B0B9B1022AA8BF02221446194611
:100D400024EAE47403460291094A4FF48071009545
:100D500004A8019403F078F8489A064904A8FFF71C
:100D6000F3FD45B030BD072045B030BD07207047CA
:100D7000E8540010A8530010034690B1084681B112
:100D800010B51446C2B000904FF48071064A02A814
:100D900003F05AF82246054902A8FFF7D5FD42B0F4
:100DA00010BD0720704700BF10550010A853001059
:100DB000024602490248FFF7C7BD00BFA853001012
:100DC00028550010104B70B51B7804460D463BB9F2
:100DD0000E4B1B68B3B129462046BDE8704018474A
:100DE0000B4803F0E9F921460A4803F065FA294661
:100DF000094803F061FA094803F0DEF9034B1B6868
:100E0000002BE8D170BD00BF24090020900C002009
:100E100034550010585500106855001078550010D2
:100E2000014B1860704700BF900C002010B53E4881
:100E300082B003F0C1F93D4B93E80300CDE9000116
:100E40003B4803F0B9F96846FFF7A4FC39493A4832
:100E5000FFF7F0FE394803F0AFF941F27070FFF789
:100E600015FE00285BD0364803F0A6F940F2DC52AC
:100E700034493548FFF7D2FD344803F09DF940F678
:100E8000B83233493348FFF7C9FD002841D0324812
:100E900003F092F944F6206230493148FFF76CFFC5
:100EA000304803F089F941F27070FFF781FFC820E4
:100EB000FFF764FD4FF47A7000F0DAFE2A4803F081
:100EC0007BF941F270712948FFF7C6FE42F6E062F5
:100ED00040F25B712648FFF7E7FE4FF4FA5200211B
:100EE0002448FFF7FDFE244803F066F92348FFF786
:100EF000D9FC4FF4FA60FFF741FD214803F05CF99B
:100F00002048FFF7CFFC4FF4FA60FFF737FD02B03F
:100F100010BD1D4803F050F9002002B010BD1B4861
:100F200003F04AF9F8E700BFBC550010CC59001097
:100F3000E055001008560010C50D00103056001086
:100F40009856001008550010BC560010D4560010DA
:100F50000457001014570010745700109C570010CD
:100F6000A8570010AC570010DC57001028090020CB
:100F70000C5800106053001018580010445800100E
:100F8000545800108858001034570010585600105C
:100F900070B543F6982201230E4682B001460092B6
:100FA00004461A463046FFF7C1FE0546291E18BF03
:100FB0000121164803F080F97DB92146144803F059
:100FC0007BF9144B1B7873B9134B1B6813B1214683
:100FD00030469847012002B070BD104803F0ECF88D
:100FE000002002B070BD0E4803F0E6F831460D480F
:100FF00003F062F921460C4803F05EF90B4803F058
:10100000DBF8054B1B68002BE1D1E3E79858001093
:10101000A458001024090020940C0020CC58001083
:10102000985500105855001068550010785500105C
:10103000FFF766BC30B5002483B01A491A4803F0A4
:101040001BFB0321142000F0B3F80321152000F04E
:10105000AFF800220121142000F0C8F8002201217D
:10106000152000F0C3F8114D01232621104A0094E9
:101070000D4803F027FB012326210E4A00940A485D
:1010800003F020FB2A46042326210094064803F09F
:1010900021FB0A20084B2A681A6003B0BDE83040E3
:1010A00000F0E6BDA0860100BC090020F00D002084
:1010B0004109002040090020500F002030B50025D4
:1010C00083B0134C01232621124A0095124803F0E5
:1010D000F9FA22460423262100950F4803F0FAFA74
:1010E0000E4BB2EE047AD3ED007A236877EE877A5E
:1010F00007EE103AF4EEC77AF1EE10FA0849094A01
:101100000B60D4BF01232B46137003B030BD00BF6A
:10111000F00D002040090020BC090020500F0020E5
:10112000480F002025230020F8B5192000F072F8A0
:101130000127192447EC4440022000F06BF80223F9
:1011400047EC44304FF0000545EC404045EC403062
:1011500047EC4040142000F08BFD45EC4040014B33
:101160001F70F8BD262300202DE9F041192000F062
:1011700051F84FF019084FF0010646EC4480022068
:1011800000F048F8022446EC4440002747EC408039
:1011900047EC404046EC4040142000F069FD47EC2D
:1011A0004040024B1F70BDE8F08100BF26230020A5
:1011B00010B44FF480740C4B53F8202003EB8003E1
:1011C000C00082F0400200F1804003F5805C02F034
:1011D000C00200F5203003F54053CCF800204160F8
:1011E0001C605DF8044B70470480034010B4084C49
:1011F000C90041EA820154F8202004EB80035140E9
:1012000003F5805301F00C015DF8044B1960704741
:101210000480034030B44FF0000343EC440043EC3F
:10122000400005254FF480740B4BC20053F820108A
:1012300003EB800081F0400102F1804303F520338D
:1012400001F0C00200F5805100F540500A605D6079
:10125000046030BC704700BF048003400FB400B589
:1012600083B0049C074802F0A7FF3CB105A92046C3
:10127000019102F013FE044802F09EFF012002F0EB
:1012800025FE00BFEC580010B054001070B5864623
:10129000EFF3108572B6124CD4E8CF6F0120002E08
:1012A000FAD1C4E8460F002EF6D1BFF35F8F4FF09E
:1012B000010CC80801F007030CFA03F31EF800C084
:1012C0001CEA030608D14CEA030C0EF800C0C4E87F
:1012D0008F6F85F3108870BD1046FFF7BFFF00BF0A
:1012E000DB0D0020044A1078431CDBB2182B28BF0A
:1012F00010231370704700BF420900204FF0E02216
:10130000936843F000539360704700BF0021044B83
:1013100003F12002C3E88F1F01339342FAD17047D3
:10132000D00D00204FF0E0234FF08032C3F80024AE
:10133000C3F80424C3F80824C3F80C24C3F8102409
:10134000C3F81424C3F81824C3F81C24C3F82024B9
:10135000C3F82424C3F82824C3F82C24C3F8302469
:1013600062B67047012300F01F029340400941B16B
:10137000800000F1604000F56140C0F880310360FA
:101380007047024A203042F82030704700E100E008
:10139000F8B50D46EFF3108772B6124ED6E8CF2F90
:1013A0000123002AFAD1C6E8423F002AF6D1BFF352
:1013B0005F8F0D4B00F110049B680C4A53F82430EA
:1013C000934203D0994201D000F072FF064B9B6814
:1013D00043F82450BFF35F8F0023C6E88F3F87F3A5
:1013E0001088F8BDD90D002000ED00E011010010BB
:1013F0002DE9F04F83B0EFF3108A72B6714ED6E844
:10140000CF2F0123002AFAD1C6E8423F002AF6D1A5
:10141000BFF35F8F6C4B00F110089B686B4A53F869
:101420002850954245D08D420C4650D0684FEB1B5A
:101430002F2B3ED801214FEA50194FEA890909F1B3
:10144000604909F5614900F01F0301FA03F0D9F87A
:101450000030C9F8800000EA030BBFF35F8FEFF3A1
:101460000581C9B2002934D0884505D0CDE90010E6
:1014700000F01EFFDDE9001025F0010EDEF808C0C7
:10148000644505D189E0D3F808C0644531D09E4653
:101490009EF9062002EB4203002A07EB8303F2DAEF
:1014A000644561D0BBF1000F20D0C9F88001C9F8B4
:1014B0000000454B9B6843F82850BFF35F8F002323
:1014C000C6E88F3F8AF3108803B0BDE8F08F154659
:1014D000EFE725F0010EDEF808C06445D8D19EF98B
:1014E00006407346002C08DA154646E0C9F880002D
:1014F000DFE793F90640002C37DB04EB440C07EBE5
:101500008C0C9CF80710DCF80820D9719A609CF9C3
:1015100006206100002A9A713DDBBCF804E05FEA16
:101520004E5E05D50EF5FF1E0EF5FF5E0EF11F0E89
:101530006FF0070C0A194FEA6E5E920002EB4E0242
:1015400008323A44ACEB030C6244C2F34A026FEA3D
:10155000C2426FEAD2429A801E4B21441A7807EBAE
:1015600081011C708A719DE77346D9B9FF228EF8FC
:1015700006204BF60152AEF80420164C4AF6AA2279
:1015800094F800C01946C91B49414A43120D83F81B
:1015900006C0227086E7104ADDE79EF906407346D2
:1015A000002CAADA0D4A0E4CD21A083AC2F30A31BC
:1015B0006FEA01516FEA115144EA5202DA809980D0
:1015C00070E700BFD90D002000ED00E01101001010
:1015D000440900202423002001BDFFFF7E090020D4
:1015E00000F8FFFFF0B5EFF30585EDB2EFF3108CD7
:1015F00072B62649D1E8CF2F0123002AFAD1C1E8DB
:10160000423F002AF6D1BFF35F8F214E40F0010E1A
:10161000B4684AF6AA2354F825701E4A0446A41A50
:10162000644163431B0D77455BB21BD092F90640C2
:101630009C421CD092F912409C4223D092F91E4049
:101640009C4221D092F92A409C4208BF03240FD02B
:10165000114A0024157813708571C1E88F4F8CF3FF
:101660001088F0BDB2680D4C42F82540F0E7002428
:1016700004EB440402EB8402FF2494714BF6015402
:101680009480E5E70124F3E70224F1E7D90D002077
:1016900000ED00E044090020242300201101001087
:1016A000014B0B4403607047D00D002070B5104C07
:1016B000104DAC420ED2FF26236863B1FFF712FE35
:1016C00001462046FFF7ECFFA680BFF35F8F08348A
:1016D000AC42F1D370BDFFF705FE01462046FFF78F
:1016E000DFFF2671BFF35F8F0834AC42E4D370BDD7
:1016F000080B0020100B00200D4B1A68EFF310812F
:1017000072B6D2E8CFCF0120BCF1000FF9D1C2E808
:101710004C0FBCF1000FF4D1BFF35F8F00221B68A8
:10172000C3E88F2F81F3108840BF0020002170474D
:1017300090220020000000002DE9F04F2DED028BDB
:1017400085B0EFF30583DBB2103B9A0818BF012286
:101750004FF0010103F0030B18BFAF4DAF4B08BFB3
:10176000AF4D0BEB820253F8226001FA0BF205F544
:1017700041539FEDA78B01925A602FE0B3881C0460
:1017800040F19380B379002B40F0DD80B6F908205A
:10179000002AC0F21E81736902EB420203EBC2030E
:1017A000D3E90247B7F1FF3F08BFB4F1FF3F0ED0C6
:1017B00005EB8B01AB6A0A69D21AE31A934205D38F
:1017C00001232A6A03FA0BF3134200D10C61284665
:1017D00000F038FBA042B941C0F2FB80B6F90830F6
:1017E000019A002B0093EA63C8DBD6F8148003EB60
:1017F0004309284608EBC907D7E9024A00F022FB53
:10180000A04271EB0A01B9DBBAF1000FC0F2C3804C
:10181000D7E90431834A934200F0ED807A88B6F923
:10182000080092B242EA0040984702460B4652EA4C
:10183000030100F0B080002B80F2D180B4EB020EE7
:101840006AEB030A38F93930C7E902EA002B95DB65
:10185000716903EB430201EBC202D2E90270BE459B
:101860007AEB000C4FEA430288DBB4462CF8083FC1
:1018700006E003EB430001EBC0005A00D0E9027020
:10188000BE451A447AEB000001EBC20404DB31F9D7
:101890003230A446002BECDA28F83930009BACF843
:1018A0000030B3881C043FF56DAF3369EFF310824D
:1018B00072B6D3E8CF0F01210028FAD1C3E8401F48
:1018C0000028F6D1BFF35F8F4FF6FF74B088002376
:1018D000316900B2B480C1E88F3F82F3108898422A
:1018E000FFF650AF0746A946746906F1080807EBF2
:1018F000470E04EBCE03D3E90250B6F90830C446D4
:10190000002B13DBB246009704E034F936309446DE
:10191000002B09DB03EB430604EBC602D2E902719C
:10192000BD4270EB0101F0DA5646009FACF8007042
:1019300034F93E7024F83E30002FD8DAB3794D46A2
:10194000002B3FF423AF0023B371B6F9083006F142
:101950000808581C3DD01A46776903E08046591C98
:101960003FF416AF03EB430107EBC100B0F802C030
:101970001C461CF4004F9E4637F93130EED094429D
:1019800080ED028B05D0A8F80030328927F831208D
:1019900034817246E3E738F8393033813369EFF345
:1019A000108272B6D3E8CF0F01210028FAD1C3E824
:1019B000401F0028F6D1BFF35F8F7388316928F884
:1019C0003930009B73800023C1E88F3F82F3108879
:1019D000D4E640BF05B0BDEC028BBDE8F08F2846D1
:1019E000CDE9022300F02EFA029A039B10EB020EBF
:1019F00043EB010A26E708460B6902919847002845
:101A0000C9D00299D1E9002311E700BFAFF30080EC
:101A1000FFFFFFFFFFFFFFFF00800B407012002061
:101A200000000B40391700102DE9F84F364C25699E
:101A30002DB1BDE8F84F0A213448FFF731BEDFF879
:101A4000E4800321404600F0EBF90326C4F80C8043
:101A5000FFF748FC4FF0504C2D4B26700344236198
:101A6000DCF800300F216370636961801D834FF0E3
:101A70000405A3F878504FF00505A3F890504FF0F7
:101A80000605A3F8A8504FF007050E214FF6FF7288
:101A900008274FF00A0EA3F8C0504FF001094FF08D
:101AA0000C0C4FF0020B4FF0090A0D204FF00B0504
:101AB000A3F868111749A280A3F808E1A160A3F870
:101AC00048B0A3F8F0A0A3F82051A3F838C1A3F8B8
:101AD0005001A3F83090A3F86060A3F8D8701A8082
:101AE0000D4B3046C8F820700C49DC60FFF750FC05
:101AF00049463046FFF736FC094B0A211F6403486C
:101B0000BDE8F84FFFF7CCBD8C09002090220020E3
:101B1000D00D0020FFFF10007012002039170010B8
:101B200000200B4000000B400146F0B50069EFF3C8
:101B3000108772B6D0E8CF5F0124002DFAD1C0E83B
:101B4000454F002DF6D1BFF35F8FB1F902E04C692C
:101B50000EEB4E0CBEF1000F4FEACC05086904EB0A
:101B6000CC0C3CDB665B4E800026C0E88F6F87F3B1
:101B70001088BCF80200CCE902230130C0F30E004B
:101B8000012838BF0120059BACF80200CCF81030CA
:101B9000069B40EA0E40CCF814300B69EFF310823C
:101BA00072B6D3E8CFCF0127BCF1000FF9D1C3E85B
:101BB0004C7FBCF1000FF4D1BFF35F8F8B88635370
:101BC000A1F804E00B69C3E88F6F82F3108801224B
:101BD000CB68097803F501538A405A60F0BD0023B1
:101BE000C0E88F3F87F310884FF0FF30F0BD00BF93
:101BF00003464089B0EB214F37DD58690A1402EBE8
:101C0000420210B500EBC2001C69EFF3108C72B6F3
:101C1000D4E8CFEF0122BEF1000FF9D1C4E84E2F76
:101C2000BEF1000FF4D1BFF35F8F428889B292B248
:101C30008A4207D000221B69C3E88F2F8CF31088DB
:101C4000002010BD42F400424280012100221869A8
:101C50009971C0E88F2F8CF310881C78DA680846D9
:101C600002F50153A140596010BD0020704700BF2C
:101C70002DE9F04182B0064600F0ECF84FF47A739B
:101C800004464FF0FF306FF00042E6FB0341A042F4
:101C900072EB01033ABF044615460D46A61F45F1F7
:101CA000FF37B44275EB07033CBF0026374600F010
:101CB000D1F8301A67EB0101012871F1000106DA51
:101CC0002046294602B0BDE8F04100F0FBB800F024
:101CD000C1F8864267EB010100290ADB0021174B9E
:101CE0003246009316483B460191FFF71DFF013035
:101CF000E6D04FF0000C134A1349536A9F4204D8B0
:101D0000906AB042DCD29F42DAD10B68EFF31080C8
:101D100072B6D3E8CF8F5FF0010EB8F1000FF8D1A3
:101D2000C3E848EFB8F1000FF3D1BFF35F8F0B6842
:101D3000C3E88FCF80F3108820BFDEE7F9160010CC
:101D40008C09002000000B40902200202DE9F04378
:101D500006460D4683B0EFF30584E4B23CB12D4B4B
:101D60005A6AAA421CD2002003B0BDE8F0832A4F71
:101D7000D7F80C9097F80080484600F063F808F117
:101D8000040859F828301B1A301A65EB01019842F3
:101D900071F1000110DB20BF1E4B5A6AAA42E2D348
:101DA00014BF012400249B6AB34234BF204644F090
:101DB000010003B0BDE8F08300F04CF8864265EB0B
:101DC0000101002914DB154B3846CDE900343246B9
:101DD0002B46FFF7A9FE011E0ADD0E4B5A6AAA42E6
:101DE00016D39B6AB34211D30B48FFF701FFB6E746
:101DF000084B5C6AAC42B6D3641B18BF01249B6AD3
:101E0000B34234BF204644F00100ADE7AA42EBD113
:101E100020BFE9E700000B408C090020F9160010F4
:101E200010B4054B054C064AA04214BF1846581C76
:101E30005DF8044BFFF72ABAFC0D002000800B4030
:101E4000FC5800100346416A0A46986A596A8A4259
:101E5000FAD17047034B596A0A46986A596A914207
:101E6000FAD1704700000B4030B4154A536A9C46C3
:101E7000946A536A6345FAD1021959414FF000053B
:101E800028BF01250E4B5B6AB5B15A1C08BF1A4624
:101E900008D04FF0FF310A460948436A8B42FCD311
:101EA0008B4207D1064902E0486A984202D1886A0B
:101EB0009042F9D330BC70479942EDD8F0E700BFAB
:101EC00000000B40074A536A9942FCD8994207D157
:101ED000044B02E05A6A914202D19A6A9042F9D8C0
:101EE000704700BF00000B40F8B5054606200E46BF
:101EF00000F048F9002842D0354A3648954214BFD0
:101F00004FF080624FF00062334B344902601A6038
:101F10008C6832EA0404FBD12D4B4FF48071EB1A2C
:101F2000B3FA83F32E4A5B09062022F8131000F05F
:101F300029F9C300B3FBF6F30133DA0920D14026B7
:101F400001216962AA622F6BFB0722D42B46002273
:101F500053F82C1F062003F5805422602F6300F0F5
:101F600011F940F2013103228000B0FBF6F0EB6A78
:101F700083F0700303F07E0323602963AA64F8BD35
:101F80004FF6FE718A421BD922464FF6FF71154E5D
:101F9000D7E740F2013205F540531A636B6AAC6A29
:101FA000062004EB831400F0EDF80F4BA402A3FB12
:101FB0000023DB0A0021B4FBF3F0FFF755FFC5E770
:101FC000C3F34503114603EB82161A46B9E700BF77
:101FD0000080074000200240003002400000024024
:101FE00014230020C0FF3F00757B2B8F013A053979
:101FF000D200F8B5054642EA411443B1A3F101030A
:10200000B3FA83F35B0944EA830343F002042E6BC3
:10201000F3070AD42B4653F82C2F624002F06E02CD
:1020200003F580531A602E63F8BD40F2013205F5C6
:1020300040531A636B6AAF6A062007EB831700F000
:10204000A1F8054BBF02A3FB0030C00A0021B7FB7B
:10205000F0F0FFF709FFDDE7757B2B8FF8B5066B16
:102060000546F3074FEA01140AD42B4653F82C2FE8
:10207000544004F0100403F580531C602E63F8BD37
:1020800040F2013200F540531A636B6AAF6A0620D2
:1020900007EB831700F076F8054BBF02A3FB003077
:1020A000C00A0021B7FBF0F0FFF7DEFEDDE700BF5E
:1020B000757B2B8F00EB400C4FEA8C0C0CF1804CA5
:1020C0000CF5803CF0B51646DCF80420051FB2F58F
:1020D000803F38BF4FF48032EDB238BFCCF80420D7
:1020E000012D2AD94FF40067254C0CF5405217609A
:1020F00054F82020B2B9DCF80020012D82EA461203
:1021000002F0E0020CF5805632602AD94FF40061EB
:1021100044F820304FF480330CF500521160CCF8B5
:102120000430F0BD6769B7FBF2FE0EF1010E0EEB55
:102130004E0EBEF1030EFCD2DDE70129D2D10324FD
:102140000CF540521460DCF80820D207FBD5DCF80F
:1021500000200B4C82EA461202F0E0020CF5805699
:1021600032600122DCF800504D4005F00305356077
:1021700002FA01F1DCF808200A42FBD0C6E700BFF2
:10218000000E0020014B53F820007047000E002085
:1021900070B4039D04682D0345EA03451B4B002CD6
:1021A000B3FBF1F3B2FBF3F61FDB194A194B904274
:1021B00014BF4FF480424FF40042174C1A6003F5ED
:1021C00080531A60A36832EA0303FBD1212200F591
:1021D00040530433016086601A600268002AFCDA0A
:1021E0000822C5601A6070BC7047036803F03F03A3
:1021F0008B42DAD18368C3F30B03B342D5D1C368F2
:1022000003F4EE23AB42D0D1EDE700BF001BB700D3
:10221000008005400020024000000240012300EB46
:102220004000800000F1804000F5841041600360B0
:10223000704700BF0023DB8A002242E800F252020E
:1022400001D4102118470421184700BF034AD2F8CF
:102250002838002BFBD0BFF35F8F704700000E4083
:102260000021044B044ABFF35F8F43F8041B9342E1
:10227000F9D170470C080E402C080E4010B44FF4F2
:102280008D704FF42A64064A064B07491460D060EB
:1022900019605368002BFCDA5DF8044B704700BFEF
:1022A0000080044000A0044000B0FA00704700BF66
:1022B00008B50148FEF7D2FF2059001038B5054C8B
:1022C000054DAC4204D254F8043B9847AC42FAD3D3
:1022D00038BD00BF185300105853001010B4074801
:1022E000074C084B084A094904601A608B6832EAB7
:1022F0000303FBD15DF8044B704700BF0020024090
:102300007F3BEFEF00300240F6FFF3030000024096
:10231000044BDB6CB3F5004F03D14FF48022024B2A
:10232000DA64704700001150002011504FF0E02295
:10233000044BD2F8881D0B43C2F8883D10EE3004E0
:10234000704700BF030330006FF06041044B054A43
:1023500019609368DB4333F06043FAD1704700BFE4
:10236000003002400000024010B545F25320FFF754
:1023700061FFBDE8104003460420184710B545F240
:102380005320FFF757FFBDE81040034601201847D0
:10239000FEF7BCBF1449154B70B55C1AA610442E4D
:1023A000324628BF4422124D9200284602F0E6FE33
:1023B000B4F5867F13D80F4AC6F1440012D02B190A
:1023C000410803EBC101C3E9002208338B42FAD173
:1023D000C30704D520F00100304445F82020064B07
:1023E0009D6070BD4320F8E7000000101001001050
:1023F000000000201101001000ED00E0002370B586
:102400002B4C82B0C4F88430FFF738FF0122294BEF
:10241000DA63636C012BFCD10321264A244B116340
:102420009C6B012CFCD10226052521460523224A5E
:1024300022480096FFF7ACFE21462B46204A214851
:102440000095FFF7A5FE0022042031461E4BFFF742
:1024500031FE2146284600221C4BFFF72BFE0022AE
:10246000082011461A4BFFF725FE002209201146CD
:10247000174BFFF71FFE002206201146134BFFF7F4
:1024800019FE0022114B07201146FFF713FE04200E
:10249000FFF778FE00240F4BA3FB0035AD0CE0B234
:1024A00029460134FFF7BAFE062CF8D102B070BD00
:1024B0000000014000300140002F68590000054035
:1024C000008C864700800540001BB70080D1F008D3
:1024D000006CDC0283DE1B4386B003B451FC0804AD
:1024E000CDE9020151FC0904CDE9040151EC0A04D3
:1024F000CDE9060103BCF047BDE800504EEC00C436
:10250000BDE800504EEC01C4BDE800504EEC02C4E2
:1025100000BD000000B5FFF7DFFF02E010FE30F461
:10252000F8D441EC100443EC112400EE010410EE49
:10253000010480EE200451EC1004704700B5FFF751
:10254000CBFF02E010FE30F4F8D441EC100443EC71
:10255000112400EE010410EE210480EE200451EC61
:102560003004704700B5FFF7B7FF02E010FE30F40B
:10257000F8D410B541EC100443EC112451EC0404E0
:1025800053EC0524A0FB024C5FF0000EE0FB03CEF1
:10259000E1FB02CE4CEC20440024E1FB03E444ECDC
:1025A00030E480EE200451EC5004BDE81040704748
:1025B00000B5FFF791FF02E010FE30F4F8D441ECD3
:1025C000100443EC112451EC2104A0FB01126FEA2A
:1025D000820252FB100052FB12F252FB1000A0EBE1
:1025E000D07C53EC04245CFB13F153EC1524A1FBC9
:1025F000022001FB030053EC4424A2EB000050FB3B
:102600001CF24FEA111312EB017043EBE27140EA46
:10261000515020EA915020F0070053EC7524A0FBA4
:10262000023C53EC752400FB03CC01FB02CC53ECC1
:102630000424ACEB824C40EA5C70A0F1010041EC58
:10264000400480EE200451EC7004704700B5FFF7A1
:1026500043FF02E010FE30F4F8D440EC700400EECA
:10266000010410EE210480EE200451EC3004704788
:1026700000B5FFF731FF02E010FE30F4F8D440EC73
:10268000600400EE010410EE210480EE200451EC01
:102690003004704700B5FFF71FFF02E010FE30F472
:1026A000F8D441EC800400EE010410EE010480EE49
:1026B000400410EE1304704700B5FFF70DFF02E071
:1026C00010FE30F4F8D441EC800400EE010410EE6A
:1026D000010480EE400410EE3304704700B5FFF7AC
:1026E000FBFE02E010FE30F4F8D441EC100443ECA1
:1026F000112400EE010410EE3004C0F300707047A6
:1027000000B5FFF7E9FE02E010FE30F4F8D443EC28
:10271000102441EC110400EE010410EE30F48CBFE3
:1027200001200020704700BF00B5FFF7D5FE02E092
:1027300010FE30F4F8D443EC102441EC110400EE08
:10274000010410EE30F42CBF01200020704700BFC0
:1027500000B5FFF7C1FE02E010FE30F4F8D441EC02
:10276000100443EC112400EE010410EE30F42CBFF1
:1027700001200020704700BF00B5FFF7ADFE02E06A
:1027800010FE30F4F8D441EC100443EC112400EEB8
:10279000010410EE30F48CBF01200020704700BF10
:1027A0009A4238BF88547047704700BF2DE9F04FF8
:1027B00083B09946DDE90DAB0F9B884611469A0719
:1027C000074616D1DA453AD20C460D46ABEB0A065F
:1027D0000E4422464B46414620200134B847B442BD
:1027E000F7D12946BAF1000F08D1204603B0BDE861
:1027F000F08F0C46BAF1000F10D00E4655460C9BD8
:102800002E449A440191721B4B46013D41461AF8F1
:10281000010D3446B847002DF5D101990F9B9B0758
:10282000E3D5651AAB45E0D922464B464146202008
:102830000135B8475D4504F10104F5D3D5E70C46F1
:10284000BAF1000FD9D1D0E72DE9F04F0F9FDDF895
:10285000248017F0020F0A9C9DF82CA00E9DDDE944
:102860000C9644D1F5BBB44241D207F0010B04F100
:10287000FF3C4FF0300EC44404E00134A6420CF893
:1028800001EF01D9202CF8D1BBF1000F00F08880B6
:10289000A5422CD904F1FF3C4FF0300EC44404E0B3
:1028A0000134AC420CF801EF21D0202CF8D117F004
:1028B000100F0ED017F4806F54D1A64263D0A542FA
:1028C00061D0B9F1100F50D0B9F1020F56D0202CC1
:1028D00029D12024CDE90B57CDE90984BDE8F04F7B
:1028E000FFF764BF17F0010B34D1B442BFD317F028
:1028F000100F1ED017F4806FE3D1002CDDD1B9F199
:10290000100F63D0B9F1020F77D0302488F800405F
:102910000124BAF1000F11D17E0748D52B2608F803
:1029200004600134D6E7264601344FF0300C08F835
:1029300006C0202CCDD0BAF1000FEDD02D2608F81E
:1029400004600134CDE90B57CDE90984BDE8F04FAF
:10295000FFF72CBFBAF1000F30D0B44205F1FF35BC
:1029600085D395E7B9F1100FB3D1BE063BD5202C26
:10297000AFD0582608F804600134A8E7202CA8D06E
:102980002646013407E0661EB9D0B9F1100F36D0E3
:10299000B9F1020FC9D14FF0620C08F806C096E7F2
:1029A00017F0100FC5D017F4806F86D089E73E0767
:1029B00090D5202608F8046001348BE717F00C0F3F
:1029C00000D0013DB442FFF452AF61E7BC0612D41F
:1029D000782488F80040302488F801400224BAF1B5
:1029E000000F99D0AAE7202C3FF473AF782608F89F
:1029F000046001346BE75824EBE76224E9E717F041
:102A0000200FA4F1020C04D04FF0580E08F80CE08F
:102A10008BE74FF0780E08F80CE086E700B97047B6
:102A200001F088BB10B1D1E900311847704700BFF1
:102A30002DE9F04F97B09DED207BDDE9225B074645
:102A4000884651EC170B249C99460C920B46024683
:102A50008DED047B0794FFF745FE002840F0F481DC
:102A6000DDE904014FF0FF326FF48013FFF74CFEF5
:102A7000002840F01B81DDE904014FF0FF32AC4B30
:102A8000FFF77EFE002840F0EE80DDE90401A4A3FC
:102A9000D3E90023FFF774FE002840F0D380DDE97E
:102AA0000401A1A3D3E90023FFF72EFE002840F084
:102AB000C980DDE9040100220023FFF725FE00287C
:102AC00040F0E88023460D9013F4806F08BF062580
:102AD00030212B460EAAA5F1200605E0013BB342AA
:102AE00002F8011B00F09381092BF7D81E46ED1A5E
:102AF000DDE90401FFF7D2FD8E4B044603EBC6036C
:102B000093ED007B8DED087BFFF7A4FD02460B469D
:102B1000DDE90401FFF716FDDDE90823FFF726FDD7
:102B200002460B46CDE90A23FFF7CAFD8246FFF7AE
:102B3000A3FD02460B46DDE90A01FFF703FD02464D
:102B40000B46CDE90A2300227B4BFFF719FE002834
:102B500000F0FE800AF1010A5046FFF78DFD0246A3
:102B60000B46DDE90801FFF7E3FD10B14FF0000A65
:102B70000134002E00F0FD80681E0EABDFF8CCC1E2
:102B800018440FE0ACFB0A21C90801EB8102AAEB53
:102B900042023032BAF1090F00F8012F40F21C81D5
:102BA0008A461D46202D05F1010306F1FF36E9D1C5
:102BB0002025691E0EAB6148194410E080FB0462B9
:102BC000C3EBA20303EB8302A4EB420404F1300243
:102BD00001351C4601F8012F002B00F0EB80202D61
:102BE0004FEAE473EAD1079B03F00303012B18D1EA
:102BF000BBF1000F15D00D9B002B00F00A810BF1EB
:102C0000FF3BBBF1200F0CD96B1E0EA930220B44E9
:102C100005E001355D4503F8012F80F0D180202DBE
:102C2000F7D1079B0EACCDE902B341464B4638467F
:102C30000C9A01950094FFF7B9FD8246504617B0F3
:102C4000BDE8F08F079B9DED047BCDE923B34146A2
:102C50004B4638460C9A8DED207B229517B0BDE887
:102C6000F04F00F045B9610723464CBF042303230E
:102C70004146219338464B46079A48BF304CCDE930
:102C800022B258BF2F4C0C9A209417B0BDE8F04FD9
:102C9000FFF78CBDDDE9042300200021FFF752FC83
:102CA0000123CDE904010D9323460DE723469C073C
:102CB00040F0AA80BBF1040F40F2A6800C9B1D4699
:102CC0001C1F04EB0B0A2A464B46414620200135C7
:102CD000B847AA45F7D155461B4C261F14F8010DDD
:102CE0002A464B464146B847B44205F10105F5D1A5
:102CF000079B0AF1040A9807A0D50C9CAAEB0403D1
:102D00009B459BD952464B46414620200AF1010A79
:102D1000B847AAEB04035B45F4D38FE7AFF3008019
:102D20000000000065CDCD410000000065CDCDC1A3
:102D3000FFFFEF7F385A00100000E03F67666666CD
:102D400088590010905900109C590010CDCCCCCC63
:102D50000022DDE90A01634BFFF7D6FC00287FF46F
:102D600008AFBAF1000F6AD10AF1010A002E7FF410
:102D700003AF2046FFF76EFC02460B46DDE9040177
:102D8000FFF7E0FB02460B46CDE904230022554B3A
:102D9000FFF7BAFC00287FF40CAFDDE90401002244
:102DA000504BFFF7EDFC00287FF403AF013424F013
:102DB0000104FEE6079B03F00303012B00F0828071
:102DC000202D3FF42EAF0D9B7BB32D220DEB050381
:102DD00083F83820013524E7202B3FF4E9AE0EAA12
:102DE00015441E44302204E0202B05F8012F3FF447
:102DF000DFAE9E4203F10103F6D12E220DEB060356
:102E000083F83820751CD4E6DDF830A063E7202570
:102E10006EE6079B13F00C0F50D00BF1FF3BAB4558
:102E20003FF6F2AE202D3FF4FCAE079B5A0701D5CA
:102E30002B22CBE71B077FF5F4AE2022C6E71AF062
:102E4000010F3FF496AE8FE7A60734D1BBF1030F15
:102E500031D90C9B1D46DC1E04EB0B0A2A464B465F
:102E6000414620200135B8475545F7D155461E4CFF
:102E7000E61E14F8010D2A464B464146B847A642C5
:102E800005F10105F5D1079B0AF1030A9D077FF5BE
:102E9000D5AE0C9CAAEB04039B457FF6CFAE524601
:102EA0004B46414620200AF1010AB847AAEB040329
:102EB0009B45F4D8C2E6DDF830A0D7E7AB453FF636
:102EC000A3AEAEE6BBF1000F3FF47AAF0D9B002B33
:102ED0009FD00BF1FF3B5D45FFF496AE202D7FF4B4
:102EE00074AF9EE60000E03F97590010000000001C
:102EF0002DE9F04F9FB02A9EDDE92845074693460D
:102F00000891099322462B46204629460E96DDE974
:102F10002BA6FFF7E7FB002840F0BE80204629469D
:102F20004FF0FF32784BFFF72BFC002840F0B480C5
:102F3000204629464FF0FF326FF48013FFF7E4FB81
:102F4000002840F0A9802046294600220023FFF7F0
:102F5000DBFB002840F0D581CDE90A45DDE90A23F5
:102F60009046994606F4006216F480630F9213931C
:102F700040F0A18058EA090340F0CA80002A40F0DE
:102F8000E38106230E9316F00202109240F0D481E2
:102F90005346042B38BF04230C920422043B1292A4
:102FA0000F932046294600220023FFF7ADFB00289F
:102FB00040F0F3819DED0A7B0F9B5A4603930E9BD5
:102FC0008DED007B029326F4006304933846099B41
:102FD0000899FFF72DFD024616F0200F099B08996E
:102FE0000CBF6520452002F10108B8470C9A129BDE
:102FF00016AC5D1E82EAE273A3EBE273D10F0026EA
:1030000022469946DFF804C101E0202E10D0CE46BA
:10301000ACFB0930C00800EB8003A9EB430330335D
:10302000BEF1090F814606F1010602F8013BECD81A
:103030000523002006930A2305950094099D089C0A
:103040004246CDE90330CDE901612B4621463846A1
:10305000FFF7FAFB109A8046D2B1A0EB0B06B245FF
:1030600016D90BEB06022B46214620200136B84725
:10307000B245F6D80BF1FF335344CBF10102A3EB79
:1030800008034244924538BF002308F101089844E0
:1030900040461FB0BDE8F08F5A463846CDE9284576
:1030A000CDE92BA60E9C099B08992A941FB0BDE878
:1030B000F04FFFF7BDBC58EA09032BD1002A3FF4BB
:1030C00062AF00230C930E9B0C9A934200F3B981DC
:1030D0004FF000082046294600220023FFF714FB8A
:1030E000002840F013819DED0A7B26F4006646F42B
:1030F00080668DED287B5A463846CDE92A8A099BA1
:1031000008992C96D2E700BFFFFFEF7FCDCCCCCC47
:1031100006230E93C9F30A50A0F2FF30FFF79AFA84
:10312000C1A3D3E90023FFF721FAC1A3D3E9002308
:10313000FFF7F4F9C9F31309CDE90C0149F07F5108
:1031400040460022B24B41F44011FFF7FBF9A4A323
:10315000D3E90023FFF70AFA02460B46DDE90C012A
:10316000FFF7DCF9FFF79AFA0C90FFF773FA9EA3CA
:10317000D3E9002380468946FFF7F8F90022A54BE2
:10318000FFF7CCF9FFF78AFA034649464046129307
:1031900097A3D3E90023FFF7E9F9804612988946FF
:1031A000FFF758FA94A3D3E90023FFF7DFF90246AB
:1031B0000B4640464946FFF7C5F902460B46804696
:1031C0008946FFF7D3F942464B46CDE91001404608
:1031D0004946FFF7A3F90022CDE91401DDE910010A
:1031E0008D4BFFF7E9F900228C4BFFF797F9024668
:1031F0000B46DDE91001FFF7DFF90022884BFFF7EE
:103200008DF902460B46DDE91001FFF7D5F942467C
:103210004B468046894600204FF08041FFF792F9E7
:1032200002460B4640464946FFF778F902460B46F0
:10323000DDE91401FFF7C0F900227A4BFFF76EF9C0
:10324000129B002203F2FF3C4FEA0C53FFF78EF96A
:1032500080468946DDE90A0142464B46FFF754FAAB
:1032600050B10C9B4046013B49460C9300226B4BEE
:10327000FFF7A2F9804689460C9A43466332C62A74
:1032800006F00202109249460F9A2CD8002A5ED00E
:10329000042212920B433FF416AFDDE90A0158A352
:1032A000D3E90023FFF758FA48B1DDE90A0156A334
:1032B000D3E90023FFF728FA00287FF404AF0E9B20
:1032C000002B50D0139A002A7DD0013B0E93129B05
:1032D0009A4505D9109B002B00F0AE800223109375
:1032E00000230F9344E022BBBAF1050F4FD906F03B
:1032F0000203002B49D105231293AAF105030F9372
:103300003AE005F100430A940B9327E626F40066A1
:1033100046F4806638462C96DDE90A67344607F1A4
:1033200000455A46CDE92A8ACDE92845099B0899E6
:10333000BCE605221292ADE700230222CDE90F324E
:1033400004220C9312922CE64FF00508C2E6BAF163
:10335000040F1FD9109B002B78D104231293AAF1DC
:1033600004030F9304E0129B9A4531D80E9B0F93F0
:103370000C9B002B3FF415AEDDE90A0142464B469B
:10338000FFF71AF9CDE90A010BE602231093052392
:103390001293F1E704231293EAE7DDE90A45A04618
:1033A0000F9B05F1004903930E9B5A46029326F4A6
:1033B000006304933846CDE90089099B0899FFF71B
:1033C00037FB024608E6129B9A4544D80F92CFE796
:1033D000109B8BB30E9B0F9302231093C8E700BF83
:1033E00061436F63A787D23F71A379094F930A4066
:1033F0001655B5BBB16B0240EF39FAFE422EE63FDF
:103400002D431CEBE2361A3F0000000080842E4161
:103410000000F83F0000E03F00002C400000244086
:10342000000018400000F03FFB799F501344D33F49
:10343000B3C8608B288AC63F129BAAEB03030F9385
:1034400096E7A3EB020808F1FF3843E60423129342
:10345000022310938CE7109B002BEDD002230F92D8
:10346000109385E72DE9F04F9BB0249C954D0A946D
:10347000954CB1F1000A18BF834625601878934C2B
:10348000914608BFA3460993002800F093824FF0AD
:1034900000080AE042464B46514608F10108D84769
:1034A000099B1878002800F0CE80099B252803F19D
:1034B00001030993EED11C460023224612F8010BAA
:1034C000A0F1200110290AD8DFE801F04009093CE9
:1034D0000909090909090938093409093000A0F165
:1034E00030010929099440F28A802A2800F0F080EE
:1034F00000252E2800F096800026A0F168011229F0
:103500002DD8DFE811F049012C0043012C003801CF
:103510002C002C002C002C002C002C002C00270050
:103520002C002C002C002C002C002700144643F00B
:103530000103C2E7144643F00203BEE7144643F01A
:103540000403BAE7144643F01003B6E7144643F009
:103550000803B2E70999487843F480730132672879
:1035600009927ED8242840F2C180A0F12502422A87
:1035700000F2BC80DFE812F05001BA00BA00BA00D5
:10358000BA00BA00BA00BA00BA00BA00BA00BA006B
:10359000BA00BA00BA00BA00BA00BA00BA00BA005B
:1035A000BA00BA00BA00BA00BA00BA00BA00BA004B
:1035B000BA00BA00BA00BA00190137011901BA00FD
:1035C000BA00BA00BA00BA00BA00BA00BA00BA002B
:1035D000BA00BA00BA00BA00BA00BA00BA00BC0118
:1035E000BA00BA00BA00BA00BA00BA00BA00BA000B
:1035F000BA00BC015801BC011901370119010025AD
:1036000000E0013205EB850500EB45051078303D03
:10361000A0F130010929F4D92E28099202F1010202
:103620007FF46AAF099943F4806348781146A0F1AA
:103630003006092E40F221812A2800F02F810992BC
:103640000026013259E74446C14501D809F1FF3847
:103650004B46424651460020D84720461BB0BDE8A5
:10366000F08FA0F16902D2B20F2A3FD8012149F2AE
:1036700041079140394040F0F3800A2A3DD0072AA3
:1036800034D10A9D55F8042B002A00F0138143F031
:10369000210012AB1F460B9303E0202900F0148198
:1036A0001A4602F00F042346092C94BF30333733F7
:1036B0000F2A07F8013B01F101014FEA1213ECD880
:1036C00002E100BF653400104C0F0020A927001054
:1036D0000A99099851F8045B4078002DCDE9092139
:1036E000BCBF43F002036D42013202E742464B4643
:1036F000514608F10108D847D2E60A99002E51F840
:10370000047B18BF3246387808BF4FF0FF320028DC
:1037100000F07B83BC18A4463A4604E012F8014F3F
:10372000002C00F03F819445F8D16446E41B5A0513
:1037300040F12281B44228BF344613F0020300F066
:1037400088820223CDE90A5142461D46464408E0DC
:103750004B465146D84717F8010F08F1010810B140
:1037600042464645F4D12B460B990A9D002B40F06A
:1037700041810A9194E6099948786C287FF4ECAE6F
:103780000A46887843F440730332E8E6099943F423
:10379000007348780132E2E609994878682800F019
:1037A000038143F080030132D9E6672800F0D98015
:1037B000472800F0DC80452800F0DB80CDE903538A
:1037C0000A9B0296073323F007031C464246F4E89F
:1037D00002674B4651465846CDE900670A94FFF709
:1037E00087FB80465CE6462808BF43F02003CDE90E
:1037F00003530A9B0296073323F007031C464246F5
:10380000F4E802674B4651465846CDE900670A94F2
:10381000FFF70EF9804643E642464B4651462520C7
:1038200008F10108D8473BE60A9A990702F1040417
:1038300008F1010640F1C68010784B4642465146D9
:10384000D847012D88BFA84440F2BD8132464B467F
:10385000514620200136D8474645F7D10A941FE645
:103860006F2800F0818040F24882782800F0908133
:103870000A2723F01003BC4641E0002606EB86062B
:1038800000EB4600A0F1300611F8010FA0F1300264
:10389000092AF3D90A46099101322EE6DDE9092108
:1038A00051F8046B9078023209920A91013226EAAB
:1038B000E67622E623F0100013F4806240F0210047
:1038C0003FF4E7AE12AB0B930B9B069000930823DB
:1038D0001020059300234246CDE9023001914B466A
:1038E000514658460496FEF7AFFF0A958046D7E545
:1038F000582862D0622840F08F800227BC4613F41B
:10390000806000F0DD8023F00D0313F4007240F0BE
:1039100081810A990F1D13F4807140F037825C0693
:103920000A9A40F13B811278002A40F04E8123F040
:103930001003002800F04981114612AA0B92CDE92C
:103940000553CDE903C601910B9B4246009300232A
:103950005146029358464B46FEF776FF0A9780463B
:103960009EE543F4006329E70827BC46C7E743F414
:10397000006343F0200321E713F0020300F08E817F
:1039800002230A951E460D4642464B465146D847ED
:1039900017F8010F08F101080028F5D12946334630
:1039A0000A9DE3E6D41BC2E60A46887843F0C003CA
:1039B0000332D4E50446804646E6102743F0200350
:1039C000BC469CE7012D40F2F880464608F1FF37DF
:1039D0002F4432464B46514620200136D847BE423E
:1039E000F7D10A9B3246187851464B46D847A8442F
:1039F0000A9455E54646A5427FF6BBAEA844A8EB1F
:103A000004080C4632464B46514620200136D84722
:103A10004645F7D12146ACE613F4806200F0BB8046
:103A20004FF4806223F0110C1CF400770A9B4AD1FA
:103A30001CF4807003F1040440F034811CF0400F4A
:103A400040F0A3801CF0800F00F0D381B3F9001088
:103A500081EAE177A7EBE177BFB2CB0F002900F055
:103A600056813A4612A90F46DFF8D8E30B910A9324
:103A70000C9501E020280FD01546AEFB0213DB08A1
:103A800003EB8301A2EB41013031092D1A4600F10D
:103A9000010007F8011BEDD80A9B0C9DCDE9055CE0
:103AA000CDE9010304960B9B424600930A2351463D
:103AB000039358464B46FEF7C7FE0A948046EFE450
:103AC00023F00C0321E7073323F0070319460846C8
:103AD0005B6850F8081BDF0F0A9051EA030062D1BF
:103AE000002A40F09F811346114612AACDE90C75B9
:103AF00000201546CDE90E68DFF848E30B9201E09F
:103B000020282DD05A1842F10002AEFB027828F08E
:103B1000030707EB9807D21B1E469B1A61F10007AB
:103B20000C464FF0CC3101FB03F10EFB0711A3FB58
:103B30000E731944052307F00108A8FB03389B18EE
:103B40000A2E03F130034FEA570774F1000405F819
:103B5000013B00F1010047EAC1734FEA5101CFD2A6
:103B6000DDE90C75DDE90E680B9B424600930A23E4
:103B7000CDE9055CCDE90107049603934B46514618
:103B80005846FEF761FE80468AE419780F4664E7DE
:103B90001027BC46B3E623F0100C45E71C064CBFCB
:103BA00012881268C0E60A46191E01DB13469CE71C
:103BB0005242134661EB410197E71346514618788C
:103BC00042464B46D847B04648E613F0200F14BF94
:103BD0004120612012ACA6460B940A93A0F10A047E
:103BE0000C9502E0202912D02A46B2FBFCF50CFB12
:103BF0001520C3B2092803F130008ABF1B19C3B2D4
:103C0000DBB262450EF8013B01F10101EAD20A9BE9
:103C10000C9D94E60A9A073222F00702516852F886
:103C2000084B8E460A9254EA010276D123F0100323
:103C3000002872D00022114612AA0B92CDE905533A
:103C40000B9B424600930023CDE903C601910293EA
:103C500094E7A54298BF01347FF674AD4FF48063BA
:103C6000CDE90A7505EB08021F460D46141B4246B6
:103C70004B465146202008F10108D847A045F6D10F
:103C80003B460A9F294638780B9D6C1C00283FF460
:103C900070AD002B3FF475AE002353E5A542DFD88D
:103CA00001346EE61968CB0F002900F0A88081EA84
:103CB000E172A2EBE17212A90846DFF888E10B91EC
:103CC0000A930C9501E0202F0FD01546AEFB02138E
:103CD000DB0803EB8301A2EB41013031092D1A46C9
:103CE00007F1010700F8011BEDD80A9B0C9DCDE9F7
:103CF000055CCDE901730496D5E6692823F0100C24
:103D000040F08C8013F480623FF48EAE88E6002A87
:103D10003FF4A8AE12AA0B92C0E613F0200F14BF16
:103D200041226122002012A90A3ACDE90E68CDE9AC
:103D30000C35CDF844B006468846754693460B913F
:103D4000CDF840C003E0202E17D004460D4629468A
:103D50003A460023204601F0D3FAD2B2092A02F1F2
:103D6000300388BF02EB0B03BC42DBB275F10005E8
:103D700008F8013B06F10106E5D23146DDE90C35D4
:103D8000DDE910CBDDF83C800E9E57E70A99096803
:103D900051B923F0100338B112A90B91CDE90553A5
:103DA000CDE903C60192CFE513F0200F14BF4120E7
:103DB000612012ACA6460B940A93A0F10A040C955C
:103DC00002E0202A12D02946B1FBFCF50CFB1510AD
:103DD000C3B2092803F130008ABF1B19C3B2DBB29A
:103DE00061450EF8013B02F10102EAD20A9B0C9DEB
:103DF000D4E7196881EAE177A7EBE1772DE6002A9D
:103E00003FF459AF12AA0B9271E713F480640DD0FE
:103E100013F0020412D004464646ECE50A27634636
:103E2000BC466CE512AB00200B939DE613F0020339
:103E30007FF4E0AD002D7FF413AF9AE4002D7FF402
:103E40000DAF96E4CDCCCCCC84460CB410B584B088
:103E500006AC54F8043B0A460094614604480394B7
:103E6000FFF700FB04B0BDE8104002B0704700BF90
:103E7000A127001070B594461E4605460C4684B036
:103E80004FF0FF32634602A900960348CDE9025481
:103E9000FFF7E8FA04B070BD252A001010B5094BF1
:103EA00084B01C684CB1034600914FF0FF3203A967
:103EB0000548A047012004B010BD00F07DF9204660
:103EC00004B010BD4C0F00201D2A001000BEFDE7FD
:103ED00008B5FFF7FBFF00BF38B5064C064DFEF7EF
:103EE000EDF9AC4204D254F8043B9847AC42FAD303
:103EF00038BD00BF585300105C53001003680846DB
:103F0000114618472DE9F0411546427D074688467F
:103F1000002A46D0002D1DDD0B780A2B23D0012D61
:103F20004FF0000C18D04646012416F8012F214608
:103F30000A2A04F1010422D0A542F6D165450BDC22
:103F400008EB050313F8013CA3F10D03B3FA83F367
:103F50005B093B75BDE8F0813B68A5EB0C0108EB04
:103F60000C009847ECE7037D002BD8D103680221B1
:103F70000F489847012DE3D04FF0010CD3E716F816
:103F8000013C0D2BD8D08C4508EB0C00A1EB0C01AB
:103F900001DA3B689847022105483B689847A446E8
:103FA000CAE7294640463B68BDE8F041184700BFD4
:103FB000885A00100B682DE9F041802B0D4606460B
:103FC00005D05A1C2B442A601E71BDE8F0810F4BAE
:103FD0001C68A4B10E4F01F1040801E0246974B11A
:103FE0002368002BFAD03B680BB1A342F6D12046E0
:103FF00041462A68FFF786FF2469002CF0D1002390
:1040000001222B442A601E71BDE8F081280E002099
:104010002C0E00202DE9F04782B00D4691461C463B
:104020000646FDF717FF4FF0FF3C6FF000472E4AA2
:10403000821841F10003944577EB03013CBF6246CF
:104040003B462A4801F064F96B1C804640D00CB313
:10405000274F284B1C68B4B1B9F1000F1CD1DFF811
:104060009C9001E0246974B12368002BFAD0D9F840
:1040700000300BB19C42F5D120462A463146B84764
:104080002469002CF0D1B8F1000F26D1284602B0E7
:10409000BDE8F087184FDCE74FF00A0ADFF85C90C4
:1040A00002E02469002CEED02368002BF9D0D9F867
:1040B00000300BB1A342F4D12A4631462046B8471E
:1040C000012220460DF107018DF807A0B847E8E767
:1040D000304601F0C9F80546B9E7044801F014F983
:1040E000284602B0BDE8F08740420F00080B0020D0
:1040F000053F0010280E0020FD3E00102C0E002071
:10410000084A136823B90AE003F110021B6933B1AE
:104110008342F9D129B9186910601961704701B15A
:1041200010607047280E002008B500F0A3F90120A8
:1041300008BD00BFF0B583B006468DF80700FDF757
:1041400089FE4FF0FF356FF00044174A821841F1A5
:104150000003954274EB03013CBF23462A461348F3
:1041600001F0D6F8124B07461C689CB1114D01E0D6
:1041700024697CB12368002BFAD02B680BB19C42D8
:10418000F6D1204601220DF10701FFF7BBFE24699D
:10419000002CEFD117B9304603B0F0BD034801F051
:1041A000B3F8304603B0F0BD40420F00080B0020CA
:1041B000280E00202C0E002038B5044601F054F8DB
:1041C000012305461A4620462946FFF723FF084BE0
:1041D0001C682CB163682BB198472469002CF9D175
:1041E000284638BD2469002CF4D1284638BD00BFCC
:1041F000280E00202DE9F041A2B004460D46FDF73F
:1042000029FE4FF0FF376FF00046264ADFF8A48002
:10421000821841F10003974276EB03013CBF3A4616
:104220003346214801F074F800272B462246064603
:1042300001A91E480197FFF71DFE019B0546D8F80E
:104240000040C3B1002C2BD0194F01E0246974B198
:104250002368002BFAD03B680BB1A342F6D120466D
:10426000019A02A9FFF74EFE2469002CF0D1002329
:10427000D8F8004001932CB1636843B19847246992
:10428000002CF9D12EB9284622B0BDE8F08124696E
:10429000F1E7054801F038F8284622B0BDE8F08182
:1042A0000194EFE740420F00080B0020B53F0010DB
:1042B0002C0E0020280E00200FB400B583B004A9F6
:1042C00051F8040B0191FFF795FF03B05DF804EB83
:1042D00004B07047B1F1000C1DDD0F4A0F4B12689E
:1042E00030B5D31AB3FA83F30D240D4D5B09411E8B
:1042F00035F913E08C4411F8010F864506D0936917
:104300009B06FCD461451060F5D130BD93699D06D4
:10431000FCD41460F3E770471823002000800740A6
:1043200014230020224BB1F1000C10B41C682EDDC8
:10433000034600201F4A591E12689369DB0617D4F2
:1043400001309369DB06FCD41368844501F8013F12
:10435000F3D14CB150211346916353F8342F02F03E
:10436000380203F580531A6060465DF8044B7047CD
:104370004CB150211346916353F8342F02F03802A8
:1043800003F580531A6078B15DF8044B70475CB157
:10439000084B50211A681346916353F8342F02F0EA
:1043A000380203F580531A606FF00200DDE700BFAA
:1043B000F40D002018230020054B1B6833B10021A9
:1043C000044A05481268006891631847704700BFA7
:1043D000F40D002018230020F80D0020024B1A686D
:1043E00093691B07FCD4704718230020F8B51C4FB5
:1043F0001C4D3A681C4EAA4214BF212522250446B2
:10440000D6F800C018B1BCF1000F10D0F8BDBCF157
:10441000000FFBD0014690632846FCF7A3FF284617
:104420001249FCF7E5FF124B34601C60F8BD0B46E7
:104430000F4A0E49306028461360FCF7A9FF01219E
:104440002846FCF78FFF3A6850211346916353F8D2
:10445000342F02F0380203F580531A60F8BD00BF14
:104460001823002000800740F40D0020B9430010FD
:10447000F80D002010B50E490E4C0F480F4A104B96
:10448000007821600C20022112781B78FCF790FE46
:1044900002210D20FCF78CFE4FF4E1312068FDF77E
:1044A00023FDBDE8104001210648FFF729BE00BFEB
:1044B0000000074018230020DC5B0010D85B0010D0
:1044C000D45B0010A409002070B500250126046803
:1044D000002BE5668446616028469DF810E0E6669C
:1044E00016DD5D1E616F1029FCD000B30021A842CB
:1044F00004BF8EF0010641EA462141F4807121613A
:10450000D4F88010616B490605D54FF0FF30636D1C
:104510008CF804E070BDA16F0029F1D02169013051
:10452000834202F8011BF3D0DCF80040DAE79CF884
:1045300004108902DBE700BF2DE9F04100270124C8
:10454000944602680546D7665160D4661C1E3846FC
:104550009DF818601EDD297986F0010789027F0227
:1045600004F1FF3E70450CBFB8464FF000081CF840
:10457000013B0B4343EA08031361536BD906FCD597
:10458000D2F8801049B970451CD0013084424FF0F8
:104590000001E7D12E71BDE8F0814FF00108536DA5
:1045A000536B9B05FCD5136EB8F1000FEDD069B1CC
:1045B000CB070BD411F0080F08BF4FF0FF302E715E
:1045C000BDE8F081002EE0D1B046E9E74FF0FF30C2
:1045D000E0E700BFF8B5044605200F46FDF7D2FD21
:1045E00000EB570CBCFBF7FC204D0CEB4C02A5FB81
:1045F00002651F49AE088F4200EB4003ACEB950506
:104600002ED801F1D64101F5A10101F62C01A1FB43
:1046100003139B0D013300214F2A98BF0122246808
:10462000B0FBFCF0E166216804F5805781F00401DD
:1046300001F00601396088BF0C49E56184BFA1FB28
:10464000021292092662C4F8A0202246012152F8E3
:104650007C5F6B409BB202F580521360E166F8BD4F
:104660000449A1FB0313DB0D0133D4E7CDCCCCCC43
:104670003F420F00893BE6550E4A30B4904214BFCA
:10468000202210220C4D0D4B0D4C2A601A60A3689D
:1046900032EA0303FBD140F265150324026803717B
:1046A000D3661560D3639363C2F8884030BCFFF7CC
:1046B00091BF00BFBC090020002002400030024032
:1046C0000000024010B49DF8044001945DF8044BD2
:1046D000FFF732BF10B49DF8044001945DF8044B1D
:1046E000FFF7F2BE0A22002100F0E4B82DE9F04FF6
:1046F00081468E466D4875461EF801BB10F80B408A
:1047000014F00804F7D1BBF12D0F23F010075DD092
:10471000BBF12B0F10D0AFB9BBF1300F00F08D8083
:10472000002B00F0858010236FF078460F27984605
:1047300000246FF0004A0DE09EF800B005F1020E73
:10474000002F60D06FF000479846B7FBF3F6BA46EB
:1047500003FB1677002528460EE0ABF1370C9C458D
:104760001DDA013504D0B04202D822D1BC4520DD8B
:104770004FF0FF351EF801BBABF1300CBCF1090F57
:10478000EDD9ABF1410CBCF1190FE6D9ABF1610CDD
:10479000BCF1190F03D8ABF1570C9C45E1DB6B1C46
:1047A0000BD004B1404212B1002D57D11160BDE8C9
:1047B000F08F08FB00C00125DCE72223C9F8003098
:1047C000002A4DD00EF1FF315046EFE79EF800B0C1
:1047D00005F1020E67B9BBF1300F44D0002B50D168
:1047E0000A23334E0827012498464FF0004AB1E7C8
:1047F0004FF0004A98460124BAFBF3F603FB06F794
:10480000AAEB0707A6E7BBF1300F89D1A87800F023
:10481000DF0058281ED1102395F803B005F1040ECF
:1048200098466FF00047B7FBF8F608FB16777FE76E
:104830000A231F4E072798467AE79EF8000000F0EB
:10484000DF00582806D110239EF801B005F1030EB1
:104850009846E6E723BB08239846E2E78246B1E79D
:104860005046BDE8F08FA87800F0DF00582810D03F
:10487000CBB1102398464FF0004A0124BAFBF8F65A
:1048800068E710234FF0006601244FF0004A984675
:1048900060E7102395F803B005F1040E9846EAE7A7
:1048A00010239846BDE708239846E4E7A95A00106C
:1048B000CCCCCC0C242A134610B509D8012A07D039
:1048C000064C0A4601462068BDE81040FFF70EBFBF
:1048D00000F070FB16230360002010BDC409002007
:1048E000032A30B412D941EA000484460B46A407D7
:1048F00021D11946604653F8044B5CF8045BA5428D
:1049000019D1043A032AF4D860461946541E7AB1E4
:10491000431E0139021901E09A4209D013F8010F30
:1049200011F801CF6045F7D0A0EB0C0030BC704708
:10493000002030BC7047541EEAE700BF830730B543
:1049400046D08418844604E003F8011B9D0704D078
:104950009C46A4456346F7D130BD013A0244A2EB20
:104960000C02032A29D9CCB20F2A04EB042404EB4D
:1049700004442FD9A2F1100C03F110052CF00F0CF8
:10498000AC44C3E90044C3E9024410336345F8D1A1
:1049900012F00C0F02F00F0E18D02EF0030CAEF137
:1049A00004051A469C4442F8044B6245FBD125F0AD
:1049B000030404330EF003022344002ACCD0C9B20E
:1049C0001A4403F8011B9342FBD130BD7246F4E751
:1049D0000346C6E79646E0E711F0FF01034600F004
:1049E000030239D08ABB10B501EB012E02680EEB31
:1049F0000E4EA2F101338EEA020423EA0203A4F16F
:104A0000013222EA0402134313F0803F0FD150F821
:104A1000044F84EA0E0CA4F10133ACF1013223EA15
:104A2000040322EA0C02134313F0803FEFD0037813
:104A300023B936E010F8013F002B32D09942F9D16A
:104A400010BD8A4228D09A0729D01A781846013317
:104A5000002AF6D110467047CAB90268A2F10133A4
:104A600023EA020313F0803F08D150F8042FA2F18B
:104A7000013323EA020313F0803FF6D003785BB1E1
:104A800010F8013F002BFBD17047990705D018465D
:104A900013F8012B002AF8D170471846DDE71846B5
:104AA000A1E7184610BD00BF82B30B4630B540EAFF
:104AB00001048646A40717D1032A07D814E0043A54
:104AC00022D01CF0803F1FD1032A23D9DEF80040FA
:104AD000194653F8045B7046A4F1013C0EF1040E34
:104AE000AC422CEA040CEAD00378013A0C78A342D9
:104AF0000ED1024406E03BB110F8013F11F8014F1E
:104B0000A34205D19042F6D1002030BD1046704737
:104B1000181B30BD70461946E6E700BF40EA0103A6
:104B20009B0730B501D1032A17D8844601F1FF3E17
:104B300007E01EF8011F541E03F8011B29B122468D
:104B40009C466346002AF4D130BD002CFCD094442E
:104B500003F8011B6345FBD130BD0C468446256834
:104B600021460434A5F1013323EA050313F0803F05
:104B7000DCD1043A4CF8045B032AF0D82146D5E78F
:104B800001292DE9F0415DD94FF0010800244FF0D3
:104B9000FF35C646434608E0A3EB05081C464FF028
:104BA000010E04EB0E03994210D900EB050CC75C13
:104BB0001CF80E60B742EFD332D04FF00108254603
:104BC000C646444404EB0E039942EED80127002464
:104BD0004FF0FF36C2F80080BE463B4607E09F1B01
:104BE0001C464FF0010E04EB0E03994210D900EB66
:104BF000060C10F803801CF80EC0E045EFD814D066
:104C000001272646BE463C4404EB0E039942EED8EB
:104C10000136681C864201D330461760BDE8F0813A
:104C2000C64507D00EF1010EBBE7BE4506D00EF11A
:104C3000010ED8E774444FF0010EB2E774444FF010
:104C4000010ED0E701270026E6E700BF2DE9F04F6F
:104C5000ADF21C4D934680468A4605AD194658462E
:104C60001C462A46FFF78CFF2B4681460DF2144264
:104C700043F8044F9342FBD174B1601E0BF1FF3235
:104C8000584412F8011F06AEA31A824203F1FF3303
:104C90005B4446F82130F4D12B684A4658460BEB6A
:104CA00003010193FFF71CFE002877D144F4006351
:104CB0000746AAEB040E661E05460293AE4510D3C6
:104CC00008EB050C06AA1CF8063052F82330BBB1DD
:104CD0001FB1019A9A4288BFA31A1D440027AE450E
:104CE000EED208EB0A00029900F0ECFA8244AAEB3B
:104CF000040EAE45E4D200200DF21C4DBDE8F08F4D
:104D00004F453B4638BF4B469E4218D9591EEA18BC
:104D100000955944424402E001339E420ED012F8FD
:104D2000010B11F8015F8542F6D09E42009D06D925
:104D3000C9F1010200272A44D518BFE7009D4F455D
:104D400009F1FF3380F0818005EB09020BEB0901CB
:104D500000954244CDF80C9002E09F4213D04B46A0
:104D600011F8015D03F1FF3912F8010D8542F4D00D
:104D7000009D0133DDF80C9001379F4209D8019B5B
:104D80001D44E71A9AE70137009DDDF80C909F4219
:104D9000F5D960460DF21C4DBDE8F08FA4EB090378
:104DA000AAEB040E661E4B4538BF4B4601332B6001
:104DB0000025019344F400630093AE4509D308EB4A
:104DC000050006AA835D52F823306BB11D44AE4541
:104DD000F5D208EB0A00009900F074FA8244AAEBBD
:104DE000040EAE45EBD286E7B14517D209F1FF318B
:104DF00005EB09024B465944424402E00133B342F9
:104E00000CD012F8017B11F801CFBC45F6D09E42C0
:104E100004D9C9F101022A44D518CEE7B9F1000F2F
:104E20003FF46AAF05EB09010BEB0902414402E0D4
:104E30005B453FF461AF12F801CD11F8017D1346D7
:104E4000BC45F5D0019B1D44C1E74B4694E700BF2C
:104E50002DE9F0410D46097890B0044600294AD06A
:104E60006A78002A6BD0AB78002B48D0E87800280D
:104E700079D02B79002B67D0284600F0F5F906464B
:104E8000204646F4007100F01DFA864246D8FE2EF8
:104E900000F28780801B4022711C27186846FFF7AC
:104EA0004DFD6EB16A1E5FFA86FC901912F8013F43
:104EB00003F03F03A91A90426B4461441970F5D185
:104EC000013CA35D03F03F036B441B781C44A742E5
:104ED00003D228E04444A74225D314F806C0324642
:104EE000294620460CF03F0CEC449CF80080FFF76C
:104EF000F7FC0028EED1204610B0BDE8F081007824
:104F000042EA014250B140EA0343214614F8010F3E
:104F10009A4241D00028F6D19A423DD00024204642
:104F200010B0BDE8F081BB5DB819002BF6D04FF48E
:104F3000006100F0C7F90744A742C1D2EEE710B004
:104F4000BDE8F041FFF748BD2278002AE6D0296885
:104F500009BA42EA0323204614F8012FF2B199421C
:104F6000F7D1C41EC7E7120442EA0162217842EA7F
:104F700003230029D2D0024600E049B141EA0200F1
:104F8000254614F8011FB3EB002F4FEA0022F4D19D
:104F90009342C3D1AC1EAEE74C1EACE79942BDD1E3
:104FA000DFE7014633462A46204610B0BDE8F0410F
:104FB000FFF74CBE014B1868704700BFC4090020C2
:104FC00080EA010C1CF0030F37D110F0030C20F025
:104FD000030021F0030150F8042B08BF51F8043BF3
:104FE0000ED08CF0030C6FF07F434FEACC0C23FA09
:104FF0000CFC51F8043B42EA0C0243EA0C0300BFEC
:10500000A2F1013C9A4201BF2CEA020C1CF0803F45
:1050100050F8042B51F8043BF2D04FEA02604FEAFB
:105020001222012828BFB0EB036F08BF1B0AF4D07F
:1050300003F0FF03000EC01A704710F0030F0AD0F0
:1050400010F8012B11F8013B012A28BF9A42F4D035
:10505000A2EB030070474DF8045D50F8042B01F0FB
:10506000030521F0030151F8043B022D26D04DD851
:1050700022F07F45B5EB132FA2F1013C2CEA020C84
:105080000DD11CF0803C08BF51F8043B0AD185EAE1
:105090000205B5EB036F0CD150F8042BE8E74FEA9B
:1050A00013235BE03CF07F4C54D10B784FEA126540
:1050B00054E04FEA126503F0FF034FE04FEA024568
:1050C000A2F1013C4FEA15452CEA020CB5EB134F57
:1050D00018D11CF0803C08BF51F8043B07D185EA89
:1050E0000205B5EB034F09D150F8042BE6E75FEA60
:1050F0000C4C2FD10B884FEA12452FE04FEA0343A7
:105100004FEA12454FEA134328E000BF02F0FF05C3
:10511000B5EB136FA2F1013C2CEA020C0DD11CF08F
:10512000803C08BF51F8043B0AD185EA0205B5EB83
:10513000032F0AD150F8042BE8E74FEA13630DE080
:1051400012F0FF0F06D051F8043B4FEA122523F06E
:105150007F4303E04FF0000020BC704705F0FF02E2
:1051600003F0FF00012828BF904204BF2D0A1B0A4C
:10517000F4D0A2EB000020BC704700BF844641EA97
:10518000000313F0030349D1403A23D30B680360B3
:105190004B6843608B688360CB68C3600B690361B5
:1051A0004B6943618B698361CB69C3610B6A03629D
:1051B0004B6A43628B6A8362CB6AC3620B6B036385
:1051C0004B6B43638B6B8363CB6BC363403040316A
:1051D000403ADBD230320BD30B6803604B6843603C
:1051E0008B688360CB68C36010301031103AF3D203
:1051F0000C3205D351F8043B40F8043B043AF9D291
:10520000043208D0D2071CBF11F8013B00F8013B63
:1052100001D30B8803806046704700BF082A13D370
:105220008B07B1D010F00303AED0C3F10403D21A40
:10523000DB071CBF11F8013B00F8013BA4D331F898
:10524000023B20F8023B9FE7043AD9D3013A11F818
:10525000013B00F8013BF9D20B7803704B784370A7
:105260008B7883706046704720F0030110F00300D4
:10527000C0F1000051F8043B00F1040C4FEACC0CE3
:105280006FF000021CBF22FA0CF213434FF0010C26
:105290004CEA0C2C4CEA0C4CA3EB0C0222EA030265
:1052A00012EACC1204BF51F8043B0430F4D0C2F12E
:1052B000000102EA0102B2FA82F2C2F11F0200EB1F
:1052C000D200704799B1034601EB000C10B401E025
:1052D0009C4508D01A4601331478002CF8D1101AD6
:1052E0005DF8044B704708465DF8044B704708466C
:1052F000704700BFF8B500BF5FF800F0E904002078
:105300005FF800F0990500205FF800F0E50100204B
:105310005FF800F07D01002069230010DD220010FD
:1053200011230010FD2300104923001061220010FA
:10533000912300104D220010AD160010952300108F
:10534000291A0010AD2200107D2300102D2300101B
:0C535000FD1200102513001011020010C7
:105360007461702F61637472000000004F6E747678
:10537000616E67656E207061796C6F61643A20259B
:10538000730A00006F70656E000000006469636856
:1053900074000000252E3266000000007461702F3A
:1053A000736E7372000000004F4B00004552524F65
:1053B000520000004641494C0000000062757379BC
:1053C000000000005B44454255475D205B494E4666
:1053D0004F5D2045535020726573657474656E0D82
:1053E000000000005B44454255475D200D0A5B49C3
:1053F0004E464F5D2025730D0A0000005B44454278
:1054000055475D205B494E464F5D20434D443A2051
:10541000257300005B44454255475D205B4F4B5D63
:105420002020204F4B0D00005B464F55545D206DF2
:1054300069736C756B7420287A6965204552524FE8
:10544000522F4641494C20696E206F7574707574F7
:10545000290D000041540D0A000000002B4D51544D
:1054600054535542524543563A00000041542B4D87
:10547000515454555345524346473D25642C312CD5
:10548000222573222C222573222C222573222C30D4
:105490002C302C22220D0A0041542B4D51545443E0
:1054A0004F4E4E3D302C222573222C25642C300D7E
:1054B0000A0000005B44454255475D205355425366
:1054C00043524942494E4720544F20257300000063
:1054D00041542B4D5154545355423D302C22257389
:1054E000222C25640D0A000041542B4D5154545078
:1054F00055423D302C222573222C222573222C2547
:10550000642C25640D0A0000415445300D0A00004A
:1055100041542B43574A41503D222573222C2225CA
:1055200073220D0A0000000041542B434946535298
:105530000D0A00000D0A2D2D2D204D5154542042EE
:10554000455249434854204F4E5456414E47454ECC
:10555000202D2D2D0D000000546F7069633A20201E
:105560002025730D0A0000005061796C6F61643A68
:105570002025730D0A0000002D2D2D2D2D2D2D2DF4
:105580002D2D2D2D2D2D2D2D2D2D2D2D2D2D2D2D4B
:105590002D2D2D2D2D2D0D000D0A2D2D2D204D5194
:1055A00054542042455249434854205645525A4F7C
:1055B0004E44454E202D2D2D0D0000005B444542EC
:1055C00055475D205B494E464F5D20525032333582
:1055D00030203C2D3E2045535033322D43360D00B4
:1055E0005B44454255475D205B494E464F5D204533
:1055F00053502D415420696E697469616C697365FB
:1056000072656E0D0000000069657473207761613A
:10561000726F6D20697320646974206E6F646967AE
:10562000206765656E2069646565212100000000C2
:105630005B44454255475D205B494E464F5D2057D0
:1056400061636874656E206F7020415420616E74D0
:10565000776F6F72640D00005B464F55545D2047B5
:1056600065656E20415420726573706F6E73652E90
:1056700020436F6E74726F6C6565722054582F52A0
:10568000582070696E7320656E2062617564726166
:1056900074652E0D000000005B44454255475D20B7
:1056A0005B4F4B5D204553502072656167656572A5
:1056B00074206F702041540D000000004563686F36
:1056C000207569747A657474656E2028415445307C
:1056D000290000005B44454255475D200D0A5B49A7
:1056E0004E464F5D20576946692076657262696E45
:1056F00064656E202868617264636F64656420412C
:1057000054290D0041542B43574D4F44453D310D15
:105710000A00000057694669206D6F647573207335
:10572000746174696F6E3A2041542B43574D4F4456
:10573000453D31005B464F55545D204765656E2001
:105740005769666920726573706F6E73652E2043AA
:105750006F6E74726F6C6565722054582F525820AA
:1057600070696E7320656E20626175647261746524
:105770002E0D00005B44454255475D200D0A5B49F4
:105780004E464F5D2056657262696E64656E206D8F
:105790006574206E65747765726B0D003132333439
:1057A0003536373800000000545247005B4445420C
:1057B00055475D200D0A5B494E464F5D20495020FC
:1057C0006164726573206F7076726167656E3A20EE
:1057D00041542B43494653520D0000005B4445425F
:1057E00055475D200D0A5B494E464F5D204D515493
:1057F000542076657262696E64656E2028686172F5
:1058000064636F646564204154290D0031302E3487
:10581000322E302E310000005B44454255475D205A
:105820000D0A5B494E464F5D204D51545420737410
:10583000617475733A2041542B4D515454434F4E6B
:105840004E3F0D0041542B4D515454434F4E4E3F4B
:105850000D0A00005B44454255475D200D0A5B4937
:105860004E464F5D204D51545420737562736372E0
:10587000696265206C696A73743A2041542B4D51FA
:1058800054545355423F0D0041542B4D51545453E1
:1058900055423F0D0A0000005354415455533A20DD
:1058A00025640A005B44454255475D205B494E46EE
:1058B0004F5D204D51545420505542207665727AE8
:1058C0006F6E64656E3A2025730D0A005B464F5576
:1058D000545D204D51545420505542524157206D33
:1058E00069736C756B740D00746170000A2A2A2A42
:1058F0002050414E4943202A2A2A0A0048617264F6
:105900007761726520616C61726D20256420616C25
:10591000726561647920636C61696D656400000083
:1059200048617264206173736572740052656C65BE
:1059300061736500626F6F74325F77323571303832
:1059400030000000302E3100322E322E30000000A8
:10595000696C6162735F6368616C6C656E676572C8
:105960005F7270323335305F776966695F626C658C
:105970000000000041546C69620000004D6172201B
:105980002038203230323600666E692B000000006D
:10599000666E69006E616E00666E692D0000000023
:1059A0005541525420737464696E0000554152543D
:1059B000207374646F75740055415254207374647D
:1059C000696E202F207374646F75740000C201002B
:1059D00004050F0006005250D3F075422C590010F8
:1059E00006005250E182887F345900100600525060
:1059F0003ABCA9114459001006005250ABB3605391
:105A00004859001006005250BBFF3CB650590010D8
:105A100006005250861C03027459001006005250B2
:105A20005422A29D7C59001005005250DE65F46896
:105A3000F465001000000000000000000000F03FCE
:105A40000000000000002440000000000000594059
:105A50000000000000408F40000000000088C340AC
:105A600000000000006AF8400000000080842E4121
:105A700000000000D01263410000000084D797416D
:105A80000000000065CDCD410D0A00000600525017
:105A900053B4F4A1B85900100800525012C60000C7
:105AA0000800525092D60000002020202020202004
:105AB00020202828282828202020202020202020BE
:105AC00020202020202020202088101010101010CE
:105AD000101010101010101010040404040404041A
